:020000040800F2
:10000000004001200D410008592500085B2500082B
:100010005D2500085F25000861250008000000003C
:100020000000000000000000000000006325000840
:100030006525000800000000672500086925000804
:100040005541000855410008554100085541000838
:100050005541000855410008554100085541000828
:100060005541000855410008554100085541000818
:100070005541000855410008554100085541000808
:1000800055410008554100085541000855410008F8
:1000900055410008554100085541000855410008E8
:1000A00055410008554100085541000855410008D8
:1000B00055410008554100085541000855410008C8
:1000C00055410008554100085541000855410008B8
:1000D00055410008554100087125000855410008A8
:1000E0008125000855410008554100088D2500086C
:1000F0009D250008000000005541000855410008FA
:100100005541000855410008554100085541000877
:100110005541000855410008554100080000000005
:100120005541000800000000000000000000000031
:0C01300000000000000000005FF808F173
:10013C000348044B834202D0034B03B1184770476A
:10014C007000002070000020000000000548064BE5
:10015C001B1AD90F01EBA301491002D0034B03B1B9
:10016C00184770477000002070000020000000004D
:10017C0010B5064C237843B9FFF7DAFF044B13B1E3
:10018C000448AFF300800123237010BD70000020E1
:10019C00000000005841000808B5044B1BB104498D
:1001AC000448AFF30080BDE80840CFE70000000032
:1001BC00740000205841000870B50D4E0D4D761B93
:1001CC00B61006D0002455F8043B01349847A642DB
:1001DC00F9D1094E094D03F0B9FF761BB61006D0C4
:1001EC00002455F8043B01349847A642F9D170BD60
:1001FC002C4200082C420008304200082C42000817
:10020C00830730B548D0541E002A3FD00346CAB2EB
:10021C0001E0013C3AD303F8012B9D07F9D1032CE3
:10022C002DD9CDB245EA05250F2C45EA054536D921
:10023C00A4F1100222F00F0C03F1200EE6444FEA59
:10024C00121C03F1100242E9045542E90255103226
:10025C007245F8D10CF1010214F00C0F03EB0212F1
:10026C0004F00F0C13D0ACF1040323F0030304339C
:10027C00134442F8045B9342FBD10CF003042CB101
:10028C00CAB21C4403F8012B9C42FBD130BD64461E
:10029C001346002CF4D1F9E703461446BFE71A467F
:1002AC00A446E0E70CB430B50C466FF000459DB0A9
:1002BC000A4A20AB059253F8042B02A9CDE901346C
:1002CC0007950495069400F00DF90022029B1A7014
:1002DC001DB0BDE8304002B0704700BF0802FFFF00
:1002EC000EB430B504466FF000459CB00B4A1FAB02
:1002FC000B49059253F8042B086802A9CDE9013487
:10030C0007950495069400F0EDF80022029B1A70F4
:10031C001CB0BDE8304003B0704700BF0802FFFFBF
:10032C00000000202DE9F0478F680C469F421D46C7
:10033C00164638D88246888910F4906F0ED13D4607
:10034C0008682A46314600F091FC0020A268236818
:10035C00D21B2B44A2602360BDE8F0874B6909696E
:10036C0003EB4308236808EBD878A3EB01096B1C5B
:10037C004FEA68084B444345424684BF9846424680
:10038C00430513D51146504600F052FD074608B3FD
:10039C004A46216900F0F4FBA38923F4906343F0EF
:1003AC008003A38107E01F460868CAE7504600F0A7
:1003BC009BFD074650B107EB0900A8EB0903276129
:1003CC00C4F814802F46A3602060BAE75046216918
:1003DC0000F0C8FC0C23CAF80030A3894FF0FF30A2
:1003EC0043F04003A381B7E72DE9F04F93689146A2
:1003FC0083B0002B6ED0176880460C4608688D6859
:10040C00083744E0B4F80CC01CF4906F2ED0D4E93B
:10041C000413451A03EB430303EBD373AA194FEAF6
:10042C00630A531C5345524684BF9A4652461CF4E9
:10043C00806F36D01146404600F0FAFC00283AD0C6
:10044C002A462169019000F09BFBA289019B22F4B2
:10045C00906242F08002A2815819AAEB0505A560B2
:10046C00C4F814A03546B246236120605946524662
:10047C0000F0FCFBD9F80830A16820684D1B5044F3
:10048C009E1BA5602060C9F808601EB3083757E9A9
:10049C0002B6002EFAD0B542AA46B3D93546B246BA
:1004AC00E4E7404600F020FD03460028D4D1404646
:1004BC00216900F057FC0C2300224FF0FF30C8F8E4
:1004CC000030A38943F04003A381C9E9012203B0A2
:1004DC00BDE8F08F00231846C9F8043003B0BDE81E
:1004EC00F08F00BF2DE9F04F1C468B890F461D067F
:1004FC00804692469DB003D50B69002B00F0F3802B
:10050C0000230993302320228DF82A309AF80030EA
:10051C00039401257B4C8DF82920002B76D0D146F5
:10052C0003E019F8013F002B79D0252BF9D1B9EB59
:10053C000A0B77D199F80020002A67D000234FF0DE
:10054C00FF3209F10109CDE90523049307938DF8D6
:10055C0053301A9304E0001B05FA00F01843049082
:10056C00CA460522204619F8011B00F0C1FA049B6B
:10057C000028F0D1D80644BF20228DF8532019074B
:10058C0048BF2B229AF8001048BF8DF853202A2917
:10059C0056D1039A11680432002903927EDB07912D
:1005AC009AF801100AF1010A2E295BD0DFF8589154
:1005BC000322484600F09CFA48B14022049BA0EB71
:1005CC00090002FA00F003430AF1010A04931AF835
:1005DC00011B06224D488DF8281000F089FA0028DE
:1005EC0062D04B4B002B52D003A900913A464046A7
:1005FC00484B04A9AFF300800646721C06D0099B39
:10060C00334409939AF80030002B88D1BB895B06E0
:10061C004CBF4FF0FF3009981DB0BDE8F08FB9EB1F
:10062C000A0BF3D05B46524639464046FFF77AFE3A
:10063C000130EBD0099B99F800205B4409937BE7D0
:10064C00A1F13002092AAFD8079B1AF8011F03EB5E
:10065C00830302EB4303A1F13002092AF5D92E29B9
:10066C000793A3D19AF801102A2927D1039B0AF1E9
:10067C0002001A680433002A0393B8BF4FF0FF330B
:10068C009AF8021005928246B8BF05938EE7039B39
:10069C00073323F0070308330393B0E7494243F0D1
:1006AC000203079104937BE703A900913A46404665
:1006BC00184B04A900F0C6F806469EE70023A1F1EA
:1006CC003002092A0AF1010A05933FF66FAF1AF8B6
:1006DC00011F03EB830302EB4303A1F13002092A50
:1006EC00F5D9059362E7402100F0A2FB3860386130
:1006FC0010B140237B6103E70C234FF0FF30C8F8A7
:10070C00003089E7E8410008F0410008F441000896
:10071C0000000000310300082DE9F04791461E4609
:10072C000A698B680C469A42B8BF1A46C9F8002071
:10073C0091F843300546DDF8208013B10132C9F839
:10074C000020226891065DD5D9F800300233C9F833
:10075C000030226812F0060F11461ED1E168CB1A48
:10076C00002BD8BF114618DD002704F1190A06E04A
:10077C00D9F80030E268A2EB030CBC450CDD012378
:10078C00524631462846C047013007F10107EFD1E8
:10079C004FF0FF30BDE8F087216894F84330003B00
:1007AC0018BF01238A060AD53021E21882F84310BB
:1007BC0094F845105A1C2244023382F843103146F7
:1007CC00284604F14302C0470130E1D0236803F00E
:1007DC000603042B1DD0A3682269934225DD002754
:1007EC009B1A1F4404F11A09002401E0BC421CDAD4
:1007FC0001234A4631462846C047013004F1010422
:10080C00F4D1C5E712F0060F12D0003B18BF01233C
:10081C00D5E7D9F80030E1682269C91AA36821EA42
:10082C00E1779342DCDC0029DCDC0020BDE8F087BA
:10083C00E168D9F80030CB1A002BD8BF114693DCF5
:10084C00ABE700BF2DE9F04317460A7E85B00C4696
:10085C00064698460C9D01F1430C002A33D0A2F1B8
:10086C005803D9B2202967D8202B65D8DFE813F0BC
:10087C00DD006400640064006400640064006400D3
:10088C00640064006400A3006E00640064006400F3
:10089C0064006E00640064006400640021007F004A
:1008AC00BF0064006400AE0064007F00640064005C
:1008BC00E40023681A0640F102812B686269191D55
:1008CC0029601B681A600023E14623613B462146E0
:1008DC003046CDF8008003AAFFF71EFF013020D070
:1008EC004A46394630462369C047013019D023683F
:1008FC00E0689B07039919D5431A002B16DD0025D8
:10090C0004F1190904E0E0680399431AAB420DDDC8
:10091C0001234A4639463046C047013005F10105EE
:10092C00F1D14FF0FF3005B0BDE8F0838842B8BF7D
:10093C00084605B0BDE8F083012384F8422004F199
:10094C0042092361002384F84330BFE7236819066A
:10095C0002D45A0600F1BF8029680A680431296064
:10096C001146002A6ADB0A25DFF87CE110E02368D7
:10097C00180640F19A802B68191D296019686F2A96
:10098C000CBF08250A25DFF860E1002384F843300A
:10099C006268002AA2607DDB236823F004032360D5
:1009AC00002959D1002A77D1E146082D63D0ACEB50
:1009BC00090323618AE701222B6804F142091968B3
:1009CC0004332B6084F842102261BBE72B680021B2
:1009DC001A1D2A60D3F800906268484600F088F827
:1009EC0000287FD0A0EB090060602061AAE7236893
:1009FC0043F0200323607822DFF8F0E084F84520F0
:100A0C002A68111D2960190642D45D0640D511884B
:100A1C00D80744BF43F020032360002943D1236847
:100A2C00102523F020032360AFE75823DFF8B8E04C
:100A3C0084F845302368E3E72368DCE72D2284F84B
:100A4C00432062684942002AA26002DB23F00403BF
:100A5C0023600A25DFF890E0E146B1FBF5F30A4686
:100A6C0005FB131019461EF80030AA4209F8013D87
:100A7C00F3D2082D9BD12368D90798D562682369D6
:100A8C009A4294DC302309F1FF3989F800308EE763
:100A9C001168BDE70029DFD19EF8003004F142094E
:100AAC0084F8423081E710256FE713F0400F2B6874
:100ABC0003F1040129600CBF196819885FE713F072
:100ACC00400F2B68626903F1040129601B6814BF95
:100ADC001A801A60F7E62A68B2F9001004322A600C
:100AEC000A463EE7606880E7FC41000810420008B7
:100AFC005FFA81FC810710D00346511E2AB90AE027
:100B0C009A0718460AD0013905D3184613F8012B59
:100B1C006245F5D1704700207047114603290CD867
:100B2C000029F8D00346014401E08B42F3D018466B
:100B3C0013F8012B6245F8D1ECE7024610B54CEAEC
:100B4C000C2444EA04441046036804326340A3F1C5
:100B5C00013E2EEA030313F0803F04D1043903292C
:100B6C001046F0D851B10346014401E08B4205D048
:100B7C00184613F8012B6245F8D110BD002010BDAA
:100B8C00844641EA000313F0030349D1403A23D3CE
:100B9C000B6803604B6843608B688360CB68C360F1
:100BAC000B6903614B6943618B698361CB69C361D9
:100BBC000B6A03624B6A43628B6A8362CB6AC362C1
:100BCC000B6B03634B6B43638B6B8363CB6BC363A9
:100BDC0040304031403ADBD230320BD30B680360EB
:100BEC004B6843608B688360CB68C36010301031F6
:100BFC00103AF3D20C3205D351F8043B40F8043BC5
:100C0C00043AF9D2043208D0D2071CBF11F8013BC8
:100C1C0000F8013B01D30B8803806046704700BF8E
:100C2C00082A13D38B07B1D010F00303AED0C3F155
:100C3C000403D21ADB071CBF11F8013B00F8013B7F
:100C4C00A4D331F8023B20F8023B9FE7043AD9D3F6
:100C5C00013A11F8013B00F8013BF9D20B78037013
:100C6C004B7843708B7883706046704788420DD9FF
:100C7C008B1883420AD900EB020CBAB1624613F806
:100C8C0001CD994202F801CDF9D170470F2A0ED847
:100C9C00034602F1FF3C4AB10CF1010C013B8C44C0
:100CAC0011F8012B614503F8012FF9D1704740EA87
:100CBC0001039B074FD1A2F1100370B501F1200C79
:100CCC0023F00F0501F1100E00F11004AC441B09C8
:100CDC005EF8105C0EF1100E44F8105C5EF81C5CB3
:100CEC00103444F81C5C5EF8185C44F8185C5EF830
:100CFC00145CE64544F8145CEAD1013312F00C0F95
:100D0C0001EB031102F00F0400EB031327D08E4606
:100D1C00043C24F003064FEA940C1E441C1F5EF89E
:100D2C00045B44F8045FB442F9D10CF1010402F005
:100D3C00030203EB840301EB840102F1FF3C4AB193
:100D4C000CF1010C013B8C4411F8012B614503F8AB
:100D5C00012FF9D170BD034602F1FF3C9CE72246FE
:100D6C00EBE700BF002952D038B551F8043C0C1FFA
:100D7C00002BB8BFE418054600F0F0F82B4A1368B6
:100D8C00002B45D0A3420CD921686018834228D08F
:100D9C00636028461460BDE8384000F0E1B8A34217
:100DAC000FD81A465B68002BF9D111685018844291
:100DBC001DD034D3636054602846BDE8384000F041
:100DCC00CFB811685018A04215D028D821686018E7
:100DDC008342EFD118685B680144C4E90013546086
:100DEC00EAE718685B680144C4E90013D1E723689B
:100DFC0019441160E0E720680144501883421160E7
:100E0C00DAD1D3E900030144C2E90013D4E77047F7
:100E1C00284663601460BDE8384000F0A1B80C238C
:100E2C0028462B60BDE8384000F09AB88C000020B2
:100E3C00F8B5CD1C25F0030508350C2D38BF0C2555
:100E4C00002D064623DBA94221D8264F00F086F858
:100E5C003A6822B3144603E063682246FBB11C4691
:100E6C0023685B1BF8D40B2B15D8636894420CBF1A
:100E7C003B605360304600F073F804F10B00231D07
:100E8C0020F00700C21A01D01B1AA350F8BD0C2386
:100E9C0000203360F8BD23601C442560EAE77968C4
:100EAC00D1B12946304600F047F8431C01460CD01E
:100EBC00C41C24F00304A04205D03046611A00F093
:100ECC003BF8013001D02560D4E70C233046336069
:100EDC0000F046F80020F8BD304600F02DF87860A0
:100EEC00DFE700BF8C000020F8B51446F9B1CAB199
:100EFC0006460D4600F036F8A04202D32F4638467F
:100F0C00F8BD21463046FFF793FF07460028F6D080
:100F1C0022462946FFF734FE30462946FFF722FFCA
:100F2C003846F8BD2746FFF71DFF3846F8BD114679
:100F3C00BDE8F840FFF77CBF002238B5064D0446EB
:100F4C0008462A6000F018F8431C00D038BD2B6806
:100F5C00002BFBD0236038BD94000020704700BFED
:100F6C00704700BF51F8040C0028A0F10400BCBF6E
:100F7C000B58C018704700BF044A05491368002B72
:100F8C0008BF0B46184410601846704798000020A4
:100F9C00F802002070B54FF0FF0C4CF4E06C1CEA2A
:100FAC0011541DBF1CEA135594EA0C0F95EA0C0F53
:100FBC0000F0DEF82C4481EA030621EA4C5123EAC6
:100FCC004C5350EA013518BF52EA033541F48011F5
:100FDC0043F4801338D0A0FB02CE4FF00005E1FBA8
:100FEC0002E506F00042E0FB03E54FF00006E1FBF2
:100FFC0003569CF0000F18BF4EF0010EA4F1FF0435
:10100C00B6F5007F64F5407404D25FEA4E0E6D4174
:10101C0046EB060642EAC62141EA55514FEAC52085
:10102C0040EA5E504FEACE2EB4F1FD0C88BFBCF501
:10103C00E06F1ED8BEF1004F08BF5FEA500E50F1B2
:10104C00000041EB045170BD06F0004646EA010178
:10105C0040EA020081EA0301B4EB5C04C2BFD4EBAA
:10106C000C0541EA045170BD41F480114FF0000EA3
:10107C00013C00F3AB8014F1360FDEBF002001F011
:10108C00004170BDC4F10004203C35DA0C341BDC8B
:10109C0004F11404C4F1200500FA05F320FA04F05D
:1010AC0001FA05F240EA020001F0004221F0004191
:1010BC0010EBD37021FA04F642EB06015EEA430E04
:1010CC0008BF20EAD37070BDC4F10C04C4F1200534
:1010DC0000FA04F320FA05F001FA04F240EA0200E7
:1010EC0001F0004110EBD37041F100015EEA430EB8
:1010FC0008BF20EAD37070BDC4F1200500FA05F2D8
:10110C004EEA020E20FA04F301FA05F243EA020356
:10111C0021FA04F001F0004121FA04F220EA020065
:10112C0000EBD3705EEA430E08BF20EAD37070BDAB
:10113C0094F0000F0FD101F00046400041EB01018B
:10114C0011F4801F08BF013CF7D041EA060195F06D
:10115C00000F18BF704703F00046520043EB030327
:10116C0013F4801F08BF013DF7D043EA0603704714
:10117C0094EA0C0F0CEA135518BF95EA0C0F0CD01F
:10118C0050EA410618BF52EA4306D1D181EA030165
:10119C0001F000414FF0000070BD50EA410606BF5F
:1011AC001046194652EA430619D094EA0C0F02D1A4
:1011BC0050EA013613D195EA0C0F05D152EA0336E9
:1011CC001CBF104619460AD181EA030101F0004107
:1011DC0041F0FE4141F470014FF0000070BD41F050
:1011EC00FE4141F4780170BD81F0004102E000BF86
:1011FC0083F0004330B54FEA41044FEA430594EACB
:10120C00050F08BF90EA020F1FBF54EA000C55EA05
:10121C00020C7FEA645C7FEA655C00F0E2804FEAD6
:10122C005454D4EB5555B8BF6D420CDD2C4480EAB8
:10123C00020281EA030382EA000083EA010180EAE8
:10124C00020281EA0303362D88BF30BD11F0004F36
:10125C004FEA01314FF4801C4CEA113102D040426C
:10126C0061EB410113F0004F4FEA03334CEA1333A7
:10127C0002D0524263EB430394EA050F00F0A780BF
:10128C00A4F10104D5F1200E0DDB02FA0EFC22FABA
:10129C0005F2801841F1000103FA0EF2801843FAAE
:1012AC0005F359410EE0A5F120050EF1200E012A9F
:1012BC0003FA0EFC28BF4CF0020C43FA05F3C018DD
:1012CC0051EBE37101F0004507D54FF0000EDCF156
:1012DC00000C7EEB00006EEB0101B1F5801F1BD3FF
:1012EC00B1F5001F0CD349085FEA30004FEA3C0C03
:1012FC0004F101044FEA445212F5800F80F09A80F9
:10130C00BCF1004F08BF5FEA500C50F1000041EBFC
:10131C00045141EA050130BD5FEA4C0C404141EB00
:10132C000101013C28BFB1F5801FE9D291F0000FFB
:10133C0004BF01460020B1FA81F308BF2033A3F1AA
:10134C000B03B3F120020CDA0C3208DD02F1140CA1
:10135C00C2F10C0201FA0CF021FA02F10CE002F1DC
:10136C001402D8BFC2F1200C01FA02F120FA0CFCD5
:10137C00DCBF41EA0C019040E41AA2BF01EB04511E
:10138C00294330BD6FEA04041F3C1CDA0C340EDC1C
:10139C0004F11404C4F1200220FA04F001FA02F35F
:1013AC0040EA030021FA04F345EA030130BDC4F11D
:1013BC000C04C4F1200220FA02F001FA04F340EA12
:1013CC000300294630BD21FA04F0294630BD94F0C3
:1013DC00000F83F4801306BF81F480110134013DAA
:1013EC004EE77FEA645C18BF7FEA655C29D094EA1B
:1013FC00050F08BF90EA020F05D054EA000C04BF99
:10140C001946104630BD91EA030F1EBF0021002083
:10141C0030BD5FEA545C05D14000494128BF41F022
:10142C00004130BD14F580043CBF01F5801130BD86
:10143C0001F0004545F0FE4141F470014FF0000011
:10144C0030BD7FEA645C1ABF194610467FEA655CC2
:10145C001CBF0B46024650EA013406BF52EA033564
:10146C0091EA030F41F4002130BD00BF90F0000F52
:10147C0004BF0021704730B54FF4806404F132048E
:10148C004FF000054FF0000150E700BF90F0000F47
:10149C0004BF0021704730B54FF4806404F132046E
:1014AC0010F0004548BF40424FF000013EE700BF3E
:1014BC0042004FEAE2014FEA31014FEA02701FBFCE
:1014CC0012F07F4393F07F4F81F06051704732F000
:1014DC007F4208BF704793F07F4F04BF41F4002157
:1014EC00704730B54FF4607401F0004521F00041B5
:1014FC001CE700BF50EA010208BF704730B54FF03F
:10150C0000050AE050EA010208BF704730B511F03F
:10151C00004502D5404261EB41014FF4806404F177
:10152C0032045FEA915C3FF4D8AE4FF003025FEAFD
:10153C00DC0C18BF03325FEADC0C18BF033202EB81
:10154C00DC02C2F1200300FA03FC20FA02F001FADB
:10155C0003FE40EA0E0021FA02F11444BDE600BF7E
:10156C004A0011D212F5001211D20DD56FF4787316
:10157C00B3EB62520ED44FEAC12343F0004343EA6B
:10158C00505323FA02F070474FF00000704750EAB6
:10159C00013002D14FF0FF3070474FF00000704720
:1015AC0080F0004002E000BF81F0004142001FBF0C
:1015BC005FEA410392EA030F7FEA226C7FEA236C15
:1015CC006AD04FEA1262D2EB1363C1BFD21841400A
:1015DC0048404140B8BF5B42192B88BF704710F0A0
:1015EC00004F40F4000020F07F4018BF404211F043
:1015FC00004F41F4000121F07F4118BF494292EAAB
:10160C00030F3FD0A2F1010241FA03FC10EB0C00D6
:10161C00C3F1200301FA03F100F0004302D5494263
:10162C0060EB4000B0F5000F13D3B0F1807F06D310
:10163C0040084FEA310102F10102FE2A51D2B1F108
:10164C00004F40EBC25008BF20F0010040EA0300FD
:10165C007047490040EB0000013A28BFB0F5000F7D
:10166C00EDD2B0FA80FCACF1080CB2EB0C0200FA33
:10167C000CF0AABF00EBC25052421843BCBFD04082
:10168C001843704792F0000F81F4000106BF80F4FC
:10169C0000000132013BB5E74FEA41037FEA226CBF
:1016AC0018BF7FEA236C21D092EA030F04D092F08A
:1016BC00000F08BF0846704790EA010F1CBF0020BE
:1016CC00704712F07F4F04D1400028BF40F000401B
:1016DC00704712F100723CBF00F50000704700F03B
:1016EC00004343F0FE4040F4000070477FEA226262
:1016FC0016BF08467FEA23630146420206BF5FEA33
:10170C00412390EA010F40F4800070474FF0000332
:10171C0004E000BF10F0004348BF40425FEA000CF9
:10172C0008BF704743F0964301464FF000001CE0A1
:10173C0050EA010208BF70474FF000030AE000BFF7
:10174C0050EA010208BF704711F0004302D5404235
:10175C0061EB41015FEA010C02BF844601460020A7
:10176C0043F0B64308BFA3F18053A3F50003BCFAC2
:10177C008CF2083AA3EBC25310DB01FA02FC63446F
:10178C0000FA02FCC2F12002BCF1004F20FA02F276
:10179C0043EB020008BF20F00100704702F1200269
:1017AC0001FA02FCC2F1200250EA4C0021FA02F2CA
:1017BC0043EB020008BF20EADC7070474FF0FF0CCF
:1017CC001CEAD0521EBF1CEAD15392EA0C0F93EACA
:1017DC000C0F6FD01A4480EA010C400218BF5FEA6C
:1017EC0041211ED04FF0006343EA501043EA5111DF
:1017FC00A0FB01310CF00040B1F5000F3EBF4900D9
:10180C0041EAD3715B0040EA010062F17F02FD2ADC
:10181C001DD8B3F1004F40EBC25008BF20F00100BF
:10182C00704790F0000F0CF0004C08BF49024CEAD6
:10183C00502040EA51207F3AC2BFD2F1FF0340EA68
:10184C00C250704740F400004FF00003013A5DDCD9
:10185C0012F1190FDCBF00F000407047C2F100021A
:10186C00410021FA02F1C2F1200200FA02FC5FEA07
:10187C00310040F1000053EA4C0308BF20EADC7051
:10188C00704792F0000F00F0004C02BF400010F4C3
:10189C00000F013AF9D040EA0C0093F0000F01F070
:1018AC00004C02BF490011F4000F013BF9D041EA92
:1018BC000C018FE70CEAD15392EA0C0F18BF93EA94
:1018CC000C0F0AD030F0004C18BF31F0004CD8D1BE
:1018DC0080EA010000F00040704790F0000F17BF45
:1018EC0090F0004F084691F0000F91F0004F14D08B
:1018FC0092EA0C0F01D142020FD193EA0C0F03D1E3
:10190C004B0218BF084608D180EA010000F00040E5
:10191C0040F0FE4040F40000704740F0FE4040F4C0
:10192C00400070474FF0FF0C1CEAD0521EBF1CEA5F
:10193C00D15392EA0C0F93EA0C0F69D0A2EB03027D
:10194C0080EA010C49024FEA402037D04FF0805317
:10195C0043EA111143EA10130CF000408B4238BFDC
:10196C005B0042F17D024FF4000C8B4224BF5B1AEA
:10197C0040EA0C00B3EB510F24BFA3EB510340EA38
:10198C005C00B3EB910F24BFA3EB910340EA9C00E6
:10199C00B3EBD10F24BFA3EBD10340EADC001B0156
:1019AC0018BF5FEA1C1CE0D1FD2A3FF650AF8B42FA
:1019BC0040EBC25008BF20F0010070470CF0004C07
:1019CC004CEA50207F32C2BFD2F1FF0340EAC25032
:1019DC00704740F400004FF00003013A37E792F0F3
:1019EC00000F00F0004C02BF400010F4000F013A51
:1019FC00F9D040EA0C0093F0000F01F0004C02BF4C
:101A0C00490011F4000F013BF9D041EA0C0195E7B4
:101A1C000CEAD15392EA0C0F08D142027FF47DAF4D
:101A2C0093EA0C0F7FF470AF084676E793EA0C0F3D
:101A3C0004D14B023FF44CAF08466EE730F0004C3B
:101A4C0018BF31F0004CCAD130F000427FF45CAFCB
:101A5C0031F000437FF43CAF5FE700BF4FF0FF3C39
:101A6C0006E000BF4FF0010C02E000BF4FF0010C8C
:101A7C004DF804CD4FEA40024FEA41037FEA226C55
:101A8C0018BF7FEA236C11D001B052EA530C18BF77
:101A9C0090EA010F58BFB2EB030088BFC81738BFDC
:101AAC006FEAE17018BF40F0010070477FEA226CCA
:101ABC0002D15FEA402C05D17FEA236CE4D15FEAC6
:101ACC00412CE1D05DF8040B704700BF84460846FA
:101ADC006146FFE70FB5FFF7C9FF002848BF10F1BB
:101AEC00000F0FBD4DF808EDFFF7F4FF0CBF012000
:101AFC0000205DF808FB00BF4DF808EDFFF7EAFF8A
:101B0C0034BF012000205DF808FB00BF4DF808ED44
:101B1C00FFF7E0FF94BF012000205DF808FB00BF39
:101B2C004DF808EDFFF7D2FF94BF012000205DF8BF
:101B3C0008FB00BF4DF808EDFFF7C8FF34BF0120CC
:101B4C0000205DF808FB00BF42000ED2B2F1FE4F40
:101B5C000BD34FF09E03B3EB126209D44FEA002370
:101B6C0043F0004323FA02F070474FF00000704737
:101B7C0012F1610F01D1420202D14FF0FF307047D8
:101B8C004FF00000704700BF53B94AB9002908BF95
:101B9C0000281CBF4FF0FF314FF0FF3000F06CB944
:101BAC00ADF1080C6DE904CE00F006F8DDF804E0A8
:101BBC00DDE9022304B070472DE9F047089D0C467F
:101BCC00002B4ED196468E458446B2FA82F262D9EB
:101BDC004AB1C2F12003914020FA03F30EFA02FE3F
:101BEC00194300FA02FC4FEA1E47B1FBF7F407FB5E
:101BFC0014111FFA8EF64FEA1C4343EA014304FB0F
:101C0C0006F199420AD91EEB030304F1FF3080F070
:101C1C001181994240F20E81023C7344591AB1FB76
:101C2C00F7F007FB101100FB06F61FFA8CF343EAE2
:101C3C0001439E420AD91EEB030300F1FF3180F0F1
:101C4C00FB809E4240F2F8807344023800219B1BBB
:101C5C0040EA04401DB1D3400022C5E90032BDE882
:101C6C00F0878B4205D90DB1C5E90001002108466A
:101C7C00F5E7B3FA83F1002946D1A34202D390428F
:101C8C00C0F0F380861A64EB03030120002DE6D02C
:101C9C00C5E90063E3E7002A40F09080A1EB0E0455
:101CAC0001214FEA1E471FFA8EF6B4FBF7F007FB33
:101CBC0010444FEA1C4343EA044306FB00F49C42E5
:101CCC0008D91EEB030300F1FF3802D29C4200F24C
:101CDC00C98040461C1B1FFA8CF3B4FBF7FC07FBB6
:101CEC001C4406FB0CF643EA04439E4208D91EEB47
:101CFC0003030CF1FF3402D29E4200F2AF80A446E3
:101D0C009B1B4CEA0040A5E7C1F120068B4022FA50
:101D1C0006FC4CEA030C24FA06F74FEA1C49B7FB05
:101D2C00F9F81FFA8CFE09FB187720FA06F38C40A1
:101D3C0000FA01FA08FB0EF01C43230C43EA07439C
:101D4C00984202FA01F20AD91CEB030308F1FF379F
:101D5C0080F0828098427FD9A8F1020863441F1A50
:101D6C00B7FBF9F309FB137703FB0EFEA4B244EAAD
:101D7C000744A64508D91CEB040403F1FF3067D2D5
:101D8C00A64565D9023B644443EA0840A0FB0283A4
:101D9C00A4EB0E049C42C6461F4651D34ED0002DD8
:101DAC0067D0BAEB0E0364EB070424FA01F2CB40C4
:101DBC00B4401C430021C5E9004250E70EFA02FE74
:101DCC00C2F12003D9404FEA1E4720FA03F300FA70
:101DDC0002FCB1FBF7F007FB101194401C431FFAF7
:101DEC008EF6230C43EA014300FB06F1994208D915
:101DFC001EEB030300F1FF382CD299422AD902388A
:101E0C0073445B1AB3FBF7F107FB1133A4B244EA3A
:101E1C00034401FB06F3A34208D91EEB040401F1B1
:101E2C00FF3813D2A34211D902397444E41A41EA9F
:101E3C0000413AE70446F1E6084607E7C245AED250
:101E4C00B8EB020E63EB0C070138A8E74146EDE74F
:101E5C00034699E74046D4E7B84680E77344ACF1B3
:101E6C00020C4DE70238734434E706462346084615
:101E7C000CE72946F3E600BF704700BF30B58BB0C6
:101E8C00002405940694079408940994204BDA696D
:101E9C0042F00402DA61DA6902F004020192019A5A
:101EAC00DA6942F02002DA61DA6902F02002029269
:101EBC00029ADA6942F00102DA61DA6902F001028F
:101ECC000392039ADA6942F00202DA61DB6903F0E9
:101EDC0002030493049B0F4D22462021284601F057
:101EEC0091FC4FF4005305934FF488130693079419
:101EFC0005A9094801F092FB2023059301230693C1
:101F0C000794089405A9284601F088FB0BB030BD56
:101F1C0000380240000002400008024008B50022D0
:101F2C001146262001F020FD262001F02DFD002277
:101F3C001146282001F018FD282001F025FD08BDD0
:101F4C0010B5044602680B4B9A4204D022680A4B27
:101F5C009A420AD010BD09490A2311F8012B0848EE
:101F6C0001F072FE074B1870F0E72021064801F0D3
:101F7C004FFCEFE70010004000140040E000002090
:101F8C00EC0100209C00002000000240B0F5005F36
:101F9C0000D07047054B1B681BB9054B01221A601A
:101FAC007047034B00221A60F3E700BFE4010020E6
:101FBC00E8010020421E4FF6FD739A4205D8034AF1
:101FCC001368D96AD862D0605962704774020020D5
:101FDC0038B504460021FFF7A3FD28B14FF07E5120
:101FEC002046FFF793FD08B9204638BD054B1D6808
:101FFC00E86AFFF78BFB2146FFF7E0FBFFF7A4FD38
:10200C006863F1E73402002008B51F4B5A781B783F
:10201C00032B16D0042B31D11B4B9B78A3F1300131
:10202C00C9B209292AD81849C878A0F13001C9B217
:10203C00092923D83038303B03EB830300EB4300F2
:10204C0007E0114B9878A0F13003DBB2092B15D8BF
:10205C0030386D2A13D00FD84D2A10D0532A0DD1F9
:10206C00A0F11E03452B09D8FFF750FB0749FFF7DA
:10207C0059FC074B186001E0732AF1D008BD022807
:10208C00FCD8044B1860F9E7A00000200000C842FF
:10209C00E0010020E801002008B572B604E000BFA2
:1020AC0013465A1E002BFAD12021024801F0B0FB36
:1020BC00014BF6E70000024020A1070008B50A48D2
:1020CC000A4B03604FF4E133436000238360C36029
:1020DC0003610C2242618361C36101F085FD00B98B
:1020EC0008BDFFF7D9FF00BFEC0100200044004001
:1020FC0000B585B00023009301930293039311481C
:10210C00114A026001224260836049F64042C2607B
:10211C000361436100F02AFC80B960230093002224
:10212C000192029203926946064800F0A9FC38B964
:10213C00044800F0A9FA05B05DF804FBFFF7ACFF0A
:10214C00FFF7AAFF340200200010014000B583B055
:10215C000023009301930F480F4A026047F6FF4299
:10216C004260836041F28833C3608023436100F096
:10217C00A4FB50B90023009301936946054800F075
:10218C008FFD20B903B05DF804FBFFF785FFFFF767
:10219C0083FF00BF740200200014004000B583B020
:1021AC000023009301930F480F4A026047F6FF4249
:1021BC00426083604FF47A73C3608023436100F004
:1021CC007CFB50B90023009301936946054800F04D
:1021DC0067FD20B903B05DF804FBFFF75DFFFFF767
:1021EC005BFF00BFB40200200010004000B593B0AC
:1021FC003422002105A8FEF703F800230093019375
:10220C0002930393049316490A6822F4C05242F4D1
:10221C0000620A60022205920121089110210991A5
:10222C000E920F934FF4002310934FF4000311936D
:10223C0005A800F0FDFD78B90F230093032301934B
:10224C0000230293039304930121684601F0DAF80A
:10225C0020B913B05DF804FBFFF71EFFFFF71CFF5E
:10226C0000700040F0B583B000F078FDFFF7BEFFC2
:10227C00FFF704FEFFF722FFFFF73AFFFFF766FFB9
:10228C00FFF78CFFFFF74AFE724800F03BFB08B1EA
:10229C00FFF702FF704800F035FB08B1FFF7FCFEBA
:1022AC0000216E4800F086FB08B1FFF7F5FE6C4C80
:1022BC006C4D0FCD20606160A260E3600F2204F8CA
:1022CC00012C694D0A232146284601F0BDFC012250
:1022DC00664901F8012B284601F0FDFE08B1FFF715
:1022EC00DBFE4FF4FA60FFF765FE6148FFF770FE06
:1022FC00604B1860002734E05F48FFF769FE5D4BC8
:10230C0018604FF4FA70FFF755FE00F043FD0746D6
:10231C005A4B01221A6007E0594B1B68012B3ED027
:10232C00022B42D0002B2DD072B6524B1868FFF7FF
:10233C00BFF80022534BFEF72DFE514B1E684F4B3E
:10234C001D68474C504B1B780193FFF709F900901F
:10235C0033462A464D492046FDF7C2FF04F8010CCE
:10236C0062B6464B1B68012BD6D0022B31D0002B0A
:10237C00DAD1434A1268012ABED0022AD4D1404A8B
:10238C001360D1E73A48FFF723FE3A4B18603B4BFA
:10239C0000221A604FF4FA60FFF70CFEC4E73648CF
:1023AC00FFF716FE334B1860BEE77C1D00F0F2FC05
:1023BC008442B9D23648FFF70BFE2E4B18602F4BD8
:1023CC0002221A600A20FFF7F5FD00F0E3FC074635
:1023DC00AAE72B4B1B68012B10D0022B1BD0002B18
:1023EC00A2D12348FFF7F4FD224B1860234B0022A7
:1023FC001A604FF4FA60FFF7DDFD95E71E48FFF712
:10240C00E7FD1C4B18601D4B01221A604FF4FA704B
:10241C00FFF7D0FD88E7174B1C681D492046FFF7D6
:10242C0089FB00B91A4C134B1C601A492046FFF764
:10243C0063FB00B9174C0F4B1C6007F10A0400F04A
:10244C00A9FC8442BFF470AF0A4C2068FFF7C0FDB2
:10245C00206069E774020020B402002034020020DE
:10246C00E100002070410008EC010020A0000020D9
:10247C000AD7A33CE0010020295C8F3EE401002038
:10248C00E8010020000059409C0000208041000819
:10249C000AD7A33E3333733F0268264B9A4200D0CF
:1024AC00704770B586B0244B1A789B5C0D2B13D0FB
:1024BC00214B1B783F2B37D01F490B780133DBB2F4
:1024CC000B70012219441D4801F005FE1C4B1870BD
:1024DC0000282DD106B070BD72B6174A9378D1780A
:1024EC00107955799679174C0496039502900191C1
:1024FC0000935378127814492046FDF7F1FEC2B2CE
:10250C0004F8012C0A2321460C4801F09DFB62B60D
:10251C00FFF77AFD002304E0074A0021D154013370
:10252C00DBB23F2BF8D9C3E7034B00221A70C3E789
:10253C00FFF7B2FD00440040A0000020EC01002099
:10254C009C000020E1000020AC410008FEE7FEE703
:10255C00FEE7FEE7FEE770477047704708B500F0EE
:10256C000DFC08BD08B5024801F058FC08BD00BFC1
:10257C00EC01002008B54FF4005001F053F908BDF0
:10258C0008B5024800F0EEFA08BD00BFB402002006
:10259C0008B5024800F0E6FA08BD00BF740200203E
:1025AC0000B585B0104B5A6A42F000425A625A6A22
:1025BC0002F000420192019A1A6A42F001021A6278
:1025CC001A6A02F001020292029A5A6A42F080528E
:1025DC005A625B6A03F080530393039B072001F05C
:1025EC00B1F905B05DF804FB0038024000B583B0CA
:1025FC000368174A934205D0164A934215D003B08C
:10260C005DF804FB144B5A6A42F010025A625B6A82
:10261C0003F010030093009B002211462B2001F0C5
:10262C00A3F92B2001F0B0F9E9E70B4B5A6A42F001
:10263C0020025A625B6A03F020030193019B002283
:10264C0011462C2001F090F92C2001F09DF9D6E7D1
:10265C000010004000140040003802400268094B92
:10266C009A4200D0704782B003F594331A6A42F054
:10267C0010021A621B6A03F010030193019B02B053
:10268C00704700BF0010014000B587B000230193D4
:10269C000293039304930593026803F1804303F5BB
:1026AC0088339A4202D007B05DF804FB03F59433EB
:1026BC00DA6942F00102DA61DB6903F0010300938D
:1026CC00009B80230193022302930323059301A90A
:1026DC00014800F0A3FFE6E70000024000B589B016
:1026EC000023039304930593069307930268134BFB
:1026FC009A4202D009B05DF804FB03F5FA335A6A2A
:10270C0042F400325A625A6A02F400320192019A7F
:10271C00DA6942F00102DA61DB6903F0010302932A
:10272C00029B0C2303930223049303230693072396
:10273C00079303A9024800F071FFDBE70044004057
:10274C00000002400368B0F1804F0ED01E4A904248
:10275C000BD002F58062904207D002F58062904265
:10276C0003D002F57C42904203D123F070034A68F7
:10277C001343B0F1804F16D0134A904213D002F598
:10278C00806290420FD002F5806290420BD002F52D
:10279C007C42904207D002F58062904203D002F551
:1027AC008062904203D123F44073CA68134323F030
:1027BC0080030A69134303608B68C3620B688362EE
:1027CC0001234361704700BF0004004030B4046A29
:1027DC00036A23F0010303624568826922F07302E5
:1027EC000B681A4324F0020C8B6843EA0C03456017
:1027FC0082614A684263036230BC704710B4036A5A
:10280C00026A22F0100202624468826922F4E642F3
:10281C00D1F800C042EA0C2223F02003D1F808C002
:10282C0043EA0C13446082614A688263036210BC01
:10283C00704710B4036A026A22F480720262446820
:10284C00C26922F0730C0A6842EA0C0223F400738A
:10285C00D1F808C043EA0C234460C2614A68C263E1
:10286C00036210BC704710B4036A026A22F48052EF
:10287C0002624468C26922F4E642D1F800C042EA1E
:10288C000C2223F40053D1F808C043EA0C33446003
:10289C00C2614A680264036210BC704701F01F01F8
:1028AC004FF0010C0CFA01FC036A23EA0C030362DF
:1028BC00036A8A4013430362704700B310B50446A1
:1028CC0090F83930B3B1022384F83930214651F8ED
:1028DC00040BFFF737FF012384F83E3084F83A30BD
:1028EC0084F83B3084F83C3084F83D3084F839303F
:1028FC00002010BD80F83830FFF778FEE3E70120A8
:10290C007047000090F83930DBB2012B27D102233D
:10291C0080F839300268D36843F00103D360036850
:10292C00B3F1804F10D0104A93420DD002F5806263
:10293C00934209D002F58032934205D01A6842F0D6
:10294C0001021A60002070479A6802F00702062AFA
:10295C0007D01A6842F001021A600020704701206B
:10296C0070470020704700BF0004004000B310B552
:10297C00044690F83930B3B1022384F8393021463B
:10298C0051F8040BFFF7DEFE012384F83E3084F887
:10299C003A3084F83B3084F83C3084F83D3084F88D
:1029AC003930002010BD80F83830FFF757FEE3E7D0
:1029BC000120704710B50446084631BB94F83A30F4
:1029CC00DBB2013B18BF0123002B52D1002835D1BB
:1029DC00022384F83A30012201462068FFF75EFF9B
:1029EC002368B3F1804F39D0244A934236D002F594
:1029FC008062934232D002F5803293422ED01A6814
:102A0C0042F001021A60002034E0042908D00829A1
:102A1C000DD094F83D30DBB2013B18BF0123D3E756
:102A2C0094F83B30DBB2013B18BF0123CCE794F8A0
:102A3C003C30DBB2013B18BF0123C5E7042805D0AD
:102A4C00082807D0022384F83D30C4E7022384F819
:102A5C003B30C0E7022384F83C30BCE79A6802F0B4
:102A6C000702062A07D01A6842F001021A600020F9
:102A7C0000E0012010BD0020FCE700BF0004004076
:102A8C0038B590F83830012B66D004460D4601233A
:102A9C0080F838300C2A5AD8DFE802F00759595917
:102AAC001B5959593059595944000068FFF78EFE8B
:102ABC002268936943F0080393612268936923F0B9
:102ACC000403936122689369E9680B4393610020C6
:102ADC003EE00068FFF792FE2268936943F40063BE
:102AEC0093612268936923F48063936122689369EC
:102AFC00E96843EA01239361002029E00068FFF7AD
:102B0C0098FE2268D36943F00803D3612268D36925
:102B1C0023F00403D3612268D369E9680B43D361C2
:102B2C00002015E00068FFF79EFE2268D36943F48D
:102B3C000063D3612268D36923F48063D361226874
:102B4C00D369E96843EA0123D361002000E0012046
:102B5C00002384F8383038BD0220FCE770477047FA
:102B6C007047704710B5044603681A6912F0020FDB
:102B7C0011D0DA6812F0020F0DD06FF002021A6158
:102B8C000123037603689B6913F0030F5ED0FFF7F4
:102B9C00E6FF0023237623681A6912F0040F12D083
:102BAC00DA6812F0040F0ED06FF004021A610223DF
:102BBC00237623689B6913F4407F4DD02046FFF7A2
:102BCC00CEFF0023237623681A6912F0080F12D067
:102BDC00DA6812F0080F0ED06FF008021A610423A5
:102BEC0023762368DB6913F0030F3CD02046FFF7F4
:102BFC00B6FF0023237623681A6912F0100F12D047
:102C0C00DA6812F0100F0ED06FF010021A61082360
:102C1C0023762368DB6913F4407F2BD02046FFF723
:102C2C009EFF0023237623681A6912F0010F03D04C
:102C3C00DA6812F0010F24D123681A6912F0400FE0
:102C4C0003D0DA6812F0400F22D110BDFFF786FFD7
:102C5C002046FFF785FF9CE72046FFF77FFF2046C5
:102C6C00FFF77EFFADE72046FFF778FF2046FFF722
:102C7C0077FFBEE72046FFF771FF2046FFF770FF96
:102C8C00CFE76FF001021A612046FFF759F9D3E73D
:102C9C006FF040021A612046FFF763FFD5E7000092
:102CAC0090F83820012A2CD010B40346012280F869
:102CBC003820022280F8392002685068946820F08D
:102CCC00700C086840EA0C0050601A68B2F1804F32
:102CDC000AD00D48824207D000F58060824203D0B2
:102CEC0000F58030824204D124F0800449682143ED
:102CFC009160012283F83920002083F8380010BC41
:102D0C0070470220704700BF00040040104B1B6846
:102D1C000BB90120704710B504464FF47A70B0FB24
:102D2C00F3F30C4A1068B0FBF3F000F03BFE68B90B
:102D3C000F2C01D901200AE0002221464FF0FF3070
:102D4C0000F012FE044B1C60002000E0012010BDBE
:102D5C00640000206C0000206800002010B50320E7
:102D6C0000F0F0FD0020FFF7D1FF10B10124204648
:102D7C0010BD0446FFF714FCF9E70000034A136882
:102D8C00034909680B441360704700BFF40200202C
:102D9C0064000020014B1868704700BFF40200204B
:102DAC0010B483B01F4B9B6813F0F00328D11D4A5D
:102DBC00526A12F0805F10D01B4A126802F4C052A3
:102DCC00B2F5C05F1DD1B0F5404F1AD1174A136848
:102DDC0043F004031360012313E012494A6A42F0E2
:102DEC0080524A624A6A02F080520192019A0E4A5B
:102DFC00126802F4C0524C6A24F080544C62DFE733
:102E0C0000230A490A6822F001021A430A600A6880
:102E1C0002F001029A4203D1002003B010BC7047AB
:102E2C000120FAE70038024000700040003C0240EC
:102E3C00002800F05E82F0B583B00446A24B9D687A
:102E4C0005F00C059E6806F48036036813F0010F3C
:102E5C001DD0082D12D00C2D0ED06368012B35D04F
:102E6C00002B49D1984B1A6822F480321A601A68E8
:102E7C0022F480221A602EE0002EEED0924B1B68BA
:102E8C0013F4003F03D06368002B00F034822368F6
:102E9C0013F0020F68D0042D55D00C2D51D0E368DF
:102EAC00002B00F0C780894B01221A60FFF772FFDC
:102EBC000646854B1B6813F0020F40F0B280FFF7FB
:102ECC0069FF801B0228F4D903201DE27E4A136897
:102EDC0043F480331360636823B3FFF75BFF07464B
:102EEC00794B1B6813F4003FD1D1FFF753FFC01B84
:102EFC006428F5D9032007E2052B09D0724B1A6818
:102F0C0022F480321A601A6822F480221A60E2E7F6
:102F1C006D4B1A6842F480221A601A6842F48032AF
:102F2C001A60D8E7FFF736FF0746674B1B6813F4A8
:102F3C00003FACD0FFF72EFFC01B6428F5D903204F
:102F4C00E2E1002EABD1604B1B6813F0020F03D0F3
:102F5C00E368012B40F0D1815B4A536823F4F853AA
:102F6C00216943EA01235360236813F0100F3BD00F
:102F7C00002D40F08580544B1B6813F4007F03D068
:102F8C00A369002B00F0BB81206A4F4B5B6803F4F4
:102F9C006043984260D9FFF703FF002840F0B181ED
:102FAC00494A536823F46043216A0B4353605368C6
:102FBC0023F07F43E16943EA01635360236A5B0BAF
:102FCC005A1C4FF4004393403F4A9268C2F30312D9
:102FDC003F498A5CD3403F4A13603F4B1868FFF768
:102FEC0095FE002840F09081236813F0080F00F044
:102FFC009B806369002B00F08480344B0122C3F862
:10300C008026FFF7C7FE06462F4B5B6B13F0020FB3
:10301C0040F08A80FFF7BEFE801B0228F4D9032003
:10302C0072E1294A536823F4F853216943EA0123D6
:10303C00536099E7254B00221A60FFF7ABFE06465A
:10304C00214B1B6813F0020F8ED0FFF7A3FE801BE1
:10305C000228F5D9032057E11B4A536823F4604337
:10306C0018435060536823F07F43E16943EA0163DE
:10307C005360206AFFF794FE00289FD0012043E1A3
:10308C00A3695BB3114B01221A62FFF783FE06465C
:10309C000D4B1B6813F4007F06D1FFF77BFE801BE2
:1030AC000228F5D903202FE1074A536823F4604323
:1030BC00216A0B435360536823F07F43E16943EA71
:1030CC000163536090E700BF0038024000004742A4
:1030DC00CC4100086C000020680000208F4B0022BF
:1030EC001A62FFF757FE06468D4B1B6813F4007FE0
:1030FC003FF47AAFFFF74EFE801B0228F4D9032071
:10310C0002E1864B0022C3F88026FFF743FE0646F9
:10311C00834B5B6B13F0020F06D0FFF73BFE801B5B
:10312C000228F5D90320EFE0236813F0040F79D0BF
:10313C007B4B5B6A13F0805F0BD1794B5A6A42F080
:10314C0080525A625B6A03F080530193019B012603
:10315C0000E00026734B1B6813F4807F0ED0A3682D
:10316C00012B1FD0002B35D16D4B5A6B22F4807282
:10317C005A635A6B22F480625A6318E0694A1368E6
:10318C0043F480731360FFF705FE0746654B1B681D
:10319C0013F4807FE3D1FFF7FDFDC01B6428F5D944
:1031AC000320B1E05E4A536B43F480735363A3680E
:1031BC0033B3FFF7EFFD0746594B5B6B13F4007FFE
:1031CC002FD1FFF7E7FDC01B41F288339842F3D9AA
:1031DC00032099E0052B09D0514B5A6B22F48072D5
:1031EC005A635A6B22F480625A63E0E74C4B5A6B79
:1031FC0042F480625A635A6B42F480725A63D6E787
:10320C00FFF7C8FD0746464B5B6B13F4007F08D0F5
:10321C00FFF7C0FDC01B41F288339842F3D903205D
:10322C0072E0C6B9636A002B6DD00C2D4CD0022B0A
:10323C0017D03A4B00221A66FFF7ACFD0446384B08
:10324C001B6813F0007F3DD0FFF7A4FD001B022884
:10325C00F5D9032058E0324A536A23F08053536265
:10326C00E0E72E4B00221A66FFF794FD05462C4B27
:10327C001B6813F0007F06D0FFF78CFD401B022863
:10328C00F5D9032040E026498B6823F47D03A26A1C
:10329C00E06A0243206B024313438B601F4B0122F5
:1032AC001A66FFF777FD04461D4B1B6813F0007F71
:1032BC0006D1FFF76FFD001B0228F5D9032023E090
:1032CC00002021E000201FE0012B1FD0144B9B6835
:1032DC0003F48031A26A91421AD103F47012E16AAC
:1032EC008A4217D103F44003226B934214D100207D
:1032FC000AE001207047012006E0012004E00120D3
:10330C0002E0012000E0002003B0F0BD0120FBE74B
:10331C000120F9E70120F7E70120F5E7000047421B
:10332C00003802400070004008B5324B9A6802F039
:10333C000C03082B5AD00C2B0AD0042B58D02D4B35
:10334C005B68C3F3423301334FF40040984050E0C4
:10335C00C2F383432849C85CC2F381520132254B26
:10336C009B6813F4803F20D04FEA401CBCEB000C50
:10337C006EEB0E0E4FEA8E1343EA9C634FEA8C11F0
:10338C00B1EB0C0163EB0E03DB0043EA5173C90094
:10339C0011EB000C43F10003590200234FEA4C20BF
:1033AC0041EADC51FEF7F0FB23E04FEA401CBCEB9A
:1033BC00000C6EEB0E0E4FEA8E1343EA9C634FEA41
:1033CC008C11B1EB0C0163EB0E03DB0043EA517380
:1033DC00C90011EB000C43F10003990200234FEAE2
:1033EC008C2041EA9C51FEF7CFFB02E0034800E041
:1033FC00034808BD00380240DC41000800127A0086
:10340C000024F400002800F0D18070B50C4605466D
:10341C006A4B1B6803F001038B420DD2012928D0A3
:10342C00664A136823F0010323431360136803F007
:10343C000103A34240F0BC802B6813F0020F06D0AE
:10344C005F4A936823F0F003A9680B4393602B68E1
:10345C0013F0010F72D06B68022B10D0032B32D0FB
:10346C00012B37D0564A126812F4007F0DD101207F
:10347C009BE0524A136843F004031360D0E7504AB0
:10348C00126812F4003F00F095804D498A6822F0D2
:10349C00030213438B60FFF77DFC06466B68022B1F
:1034AC001FD0032B2CD0012B39D0454B9B6813F02C
:1034BC000C0F43D0FFF76EFC801B41F2883398420F
:1034CC00F3D9032071E03E4A126812F0007FDCD180
:1034DC0001206AE03A4A126812F0020FD5D101209D
:1034EC0063E0374B9B6803F00C03082B26D0FFF7E7
:1034FC0051FC831B41F288329342F2D9032054E0F1
:10350C002F4B9B6803F00C030C2B17D0FFF742FCDE
:10351C00801B41F288339842F2D9032045E0284BB6
:10352C009B6803F00C03042B08D0FFF733FC801BC3
:10353C0041F288339842F2D9032036E01F4B1B68C6
:10354C0003F00103A3420AD91C4A136823F00103B8
:10355C0023431360136803F00103A3422CD12B689F
:10356C0013F0040F06D0164A936823F4E063E9685D
:10357C000B4393602B6813F0080F07D0104A936825
:10358C0023F46053296943EAC1039360FFF7CCFE2F
:10359C000B4B9B68C3F303130A4AD35CD8400A4B0A
:1035AC0018600A4B1868FFF7B1FB70BD012070471B
:1035BC000120FAE70120F8E70120F6E7003C024081
:1035CC0000380240CC4100086C000020680000204C
:1035DC00014B1868704700BF6C00002008B5FFF75E
:1035EC00F7FF044B9B68C3F30223034AD35CD84018
:1035FC0008BD00BF00380240C441000808B5FFF701
:10360C00E7FF044B9B68C3F3C223034AD35CD84047
:10361C0008BD00BF00380240C441000870B582B03C
:10362C00002365E085685E000324B44025EA0405A8
:10363C00CC68B4402C438460456825EA0C054C6882
:10364C00C4F300149C402C43446062E0DD08083550
:10365C0050F8254003F0070C4FEA8C0C4FF00F0E7E
:10366C000EFA0CFE24EA0E0E0C6904FA0CF444EA71
:10367C000E0440F8254063E0062400E0002404FA20
:10368C000EF42C430CF1020C5A4D45F82C405A4CBC
:10369C00A568D44325EA0206D1F804C01CF4801FA7
:1036AC0001D042EA0506544DAE60ED6804EA050609
:1036BC00D1F804C01CF4001F01D042EA05064E4D9F
:1036CC00EE606D6804EA0506D1F804C01CF4003FF6
:1036DC0001D042EA0506484D6E602D682C404E68BC
:1036EC0016F4803F01D042EA0504434A14600133CA
:1036FC000A6832FA03F47BD04FF0010C0CFA03FC8D
:10370C001CEA0202F3D04C6804F00304013C012CC7
:10371C0088D94C6804F00304032C0CD0C4685D00F9
:10372C004FF0030C0CFA05FC24EA0C0C8C68AC4032
:10373C0044EA0C04C4604C6804F00304022C85D0E9
:10374C0004684FEA430E4FF0030C0CFA0EFC24EA0B
:10375C000C0C4C6804F0030404FA0EF444EA0C0458
:10376C0004604C6814F4403FC1D0244C256A45F0E9
:10377C0001052562246A04F001040194019C4FEABE
:10378C00930C0CF102051B4C54F8255003F0030E5E
:10379C004FEA8E0E0F2404FA0EF425EA0405184C99
:1037AC00A0423FF46BAF04F58064A04216D004F540
:1037BC008064A04214D004F58064A04212D004F5B9
:1037CC008064A04210D004F58064A0420ED004F5B1
:1037DC008064A0423FF450AF072450E701244EE729
:1037EC0002244CE703244AE7042448E7052446E76F
:1037FC0002B070BD000001400004014000380240DE
:10380C00000002400AB18161704709048161704770
:10381C00436901EA030221EA030141EA02418161A1
:10382C007047000008B5054B5B69034200D108BD29
:10383C00024B5861FEF7AAFBF9E700BF00040140F8
:10384C0090F82130DBB2022B06D0042383630023D3
:10385C0080F82030012070470268136823F00E03B3
:10386C0013600268136823F001031360036C03F008
:10387C001C03C16B012202FA03F34B6080F8212078
:10388C00002380F820301846704708B590F8213096
:10389C00DBB2022B03D004238363012008BD026832
:1038AC00136823F00E0313600268136823F00103FE
:1038BC001360036C03F01C03C16B012202FA03F3C7
:1038CC004B6080F82120002380F82030436B13B12B
:1038DC0098470020E2E70020E0E70000002808DB22
:1038EC000901C9B200F1604000F5614080F8001395
:1038FC00704700F00F000901C9B2014B1954704711
:10390C0014ED00E000B500F00700C0F1070CBCF1AD
:10391C00040F28BF4FF0040C031D062B0FD9C31E38
:10392C004FF0FF3E0EFA0CF021EA000199400EFA1E
:10393C0003FE22EA0E0241EA02005DF804FB0023BA
:10394C00EEE70000074AD36823F4E0631B041B0C6A
:10395C00000200F4E060034343F0BF6343F4003320
:10396C00D360704700ED00E010B50446054BD868F5
:10397C00C0F30220FFF7C6FF01462046FFF7AEFF5B
:10398C0010BD00BF00ED00E0002807DB00F01F02B7
:10399C00400901239340024A42F82030704700BF8F
:1039AC0000E100E00138B0F1807F0BD24FF0E02352
:1039BC005861054AF02182F82310002098610722F3
:1039CC001A6170470120704700ED00E0026802F1B7
:1039DC000C0353E8003F23F490730C3242E800319F
:1039EC000029F3D1026802F1140353E8003F23F0DD
:1039FC000103143242E800310029F3D1036B012B8F
:103A0C0005D0202380F842300023036370470268FE
:103A1C0002F10C0353E8003F23F010030C3242E890
:103A2C0000310029F3D1ECE790F84130DBB2212BC7
:103A3C0001D0022070478368B3F5805F17D0036A0A
:103A4C005A1C02621A7803685A60C38C9BB2013B01
:103A5C009BB2C3844BB90268D36823F08003D36054
:103A6C000268D36843F04003D360002070470369B9
:103A7C00002BE4D1036A1B880268C3F3080353606C
:103A8C00036A02330362E0E710B504460268136967
:103A9C0023F44053C1680B431361836802691A43D2
:103AAC0043691A43C3691A430168CB6823F416436C
:103ABC0023F00C031343CB600268536923F4407367
:103ACC0081690B4353610268244B9A4223D0FFF760
:103ADC0085FDE369B3F5004F20D000EB800202EBCB
:103AEC00820263689B00B2FBF3F21D48A0FB02311B
:103AFC004909642303FB11231B013233A0FB03038D
:103B0C005B0903F0F00202EB011203F00F032168D2
:103B1C0013448B6010BDFFF771FDDAE700EB8000FA
:103B2C0000EB800063685B00B0FBF3F00C4AA2FB77
:103B3C0000314909642303FB1103DB003233A2FB80
:103B4C0003235B095A0002F4F87202EB011203F032
:103B5C000703216813448B60DCE700BF0038014089
:103B6C001F85EB512DE9F84305460F46164699463D
:103B7C00DDF820802B681C6837EA04040CBF012494
:103B8C000024B4422DD1B8F1FF3FF3D0B8F1000FAF
:103B9C0005D0FFF7FFF8A0EB09004045EAD92A68E9
:103BAC0002F10C0353E8003F23F4D0730C3242E8CB
:103BBC0000310029F3D12A6802F1140353E8003FC5
:103BCC0023F00103143242E800310029F3D1202301
:103BDC0085F8413085F84230002385F840300320C9
:103BEC0000E00020BDE8F88360B310B5044690F8FF
:103BFC00413013B3242384F841302268D36823F472
:103C0C000053D3602046FFF73FFF2268136923F46B
:103C1C00904313612268536923F02A03536122688D
:103C2C00D36843F40053D36000206064202384F8ED
:103C3C00413084F84230606310BD80F84030FEF7AC
:103C4C004DFDD7E7012070472DE9F04182B01E46AB
:103C5C0090F84130DBB2202B4BD104460D469046F8
:103C6C0000294AD00AB9012044E0002343642123EF
:103C7C0080F84130FFF78EF80746A4F82480A4F8AA
:103C8C002680A368B3F5805F02D04FF000080FE0E8
:103C9C002369FBB14FF000080AE038F8023B2268B8
:103CAC00C3F308035360E28C92B2013A92B2E284FD
:103CBC00E38C9BB28BB100963B46002280212046C0
:103CCC00FFF750FFD8B9002DE7D015F8012B23686A
:103CDC005A60E8E7A8460025EAE700963B46002232
:103CEC0040212046FFF73EFF58B9202384F841308D
:103CFC0000E0022002B0BDE8F0810120FAE70320C9
:103D0C00F8E70320F6E7704708B50168CA6822F0A7
:103D1C004002CA60202280F84120FFF7F4FF002007
:103D2C0008BD704708B5406A0023C385C384FFF7FC
:103D3C00F8FF08BD704790F84230DBB2222B69D1F6
:103D4C008368B3F5805F4FD0826AB3F5805F04D08F
:103D5C00002B56D10369002B53D103685B68137099
:103D6C00836A01338362C38D9BB2013B9BB2C385D3
:103D7C00002B51D100B583B00268D36823F0200327
:103D8C00D3600268D36823F48073D36002685369EC
:103D9C0023F001035361202380F842300023436356
:103DAC00036B012B33D100230363026802F10C0374
:103DBC0053E8003F23F010030C3242E80031002995
:103DCC00F3D103681A6812F0100F06D0002201928A
:103DDC001A6801925B680193019B818DFFF7AAFF22
:103DEC00002003B05DF804FB0269002AACD1826AA2
:103DFC0003685B68C3F308031380836A023383622E
:103E0C00B1E703685B6803F07F031370A8E7FEF764
:103E1C0043FBE5E7022070470020704710B582B0E5
:103E2C00044602681368D068516913F00F0F09D16A
:103E3C0013F0200F0CD010F0200F09D02046FFF704
:103E4C007AFF16E011F0010115D110F4907F12D118
:103E5C00216B012979D013F0800F03D010F0800F63
:103E6C0040F0138113F0400F03D010F0400F40F0DE
:103E7C00108102B010BD13F0010F06D010F4807F3A
:103E8C0003D0626C42F00102626413F0040F04D0A0
:103E9C0019B1626C42F00202626413F0020F04D09A
:103EAC0019B1626C42F00402626413F0080F07D07F
:103EBC0010F0200F00D119B1626C42F0080262645C
:103ECC00626C002AD5D013F0200F02D010F0200F16
:103EDC0029D123685B6903F04003626C12F0080F70
:103EEC0000D163B32046FFF771FD23685B6913F0C3
:103EFC00400F20D0226802F1140353E8003F23F056
:103F0C004003143242E800310029F3D1E36B73B162
:103F1C00624A5A63E06BFFF7B8FC0028A9D0E06B4B
:103F2C00436B9847A5E72046FFF705FFD1E72046EE
:103F3C00FFF7F7FE9DE72046FFF7F3FE99E72046D3
:103F4C00FFF7EFFE0023636493E713F0100F82D0AA
:103F5C0010F0100F3FF47FAF00230193136801930F
:103F6C0053680193019B536913F0400F51D0E26BDE
:103F7C0013685B689BB2002B3FF47BAFA18D994219
:103F8C007FF677AFE3859369202B37D0226802F157
:103F9C000C0353E8003F23F480730C3242E80031E9
:103FAC000029F3D1226802F1140353E8003F23F0F7
:103FBC000103143242E800310029F3D1226802F1E6
:103FCC00140353E8003F23F04003143242E800315D
:103FDC000029F3D1202384F8423000232363226884
:103FEC0002F10C0353E8003F23F010030C3242E8BB
:103FFC0000310029F3D1E06BFFF722FC022363634D
:10400C00A18DE38D9BB2C91A89B22046FFF792FEAF
:10401C002FE7A18DE38D9BB2C91A89B2E38D9BB2B8
:10402C00002B3FF426AF00293FF423AF226802F1A6
:10403C000C0353E8003F23F490730C3242E8003039
:10404C000028F3D1226802F1140353E8003F23F057
:10405C000103143242E800300028F3D1202384F805
:10406C00423000232363226802F10C0353E8003F23
:10407C0023F010030C3242E800300028F3D1022365
:10408C0063632046FFF756FEF3E62046FFF7CCFCB1
:10409C00EFE62046FFF738FEEBE600BF313D0008A7
:1040AC0081628285C28500234364222380F84230DA
:1040BC00036923B10268D36843F48073D360026848
:1040CC00536943F0010353610268D36843F0200342
:1040DC00D3600020704708B590F84230DBB2202B3B
:1040EC0008D149B10AB9012008BD00230363FFF7C9
:1040FC00D7FFF9E70220F7E70120F5E7704700004A
:10410C00FFF7FCFF0B480C490C4A002302E0D45883
:10411C00C4500433C4188C42F9D3094A094C002307
:10412C0001E013600432A242FBD3FCF745F8FEF722
:10413C0099F87047000000207000002034420008FD
:10414C0070000020F8020020FEE70000F8B500BF68
:10415C00F8BC08BC9E467047F8B500BFF8BC08BC5C
:04416C009E467047B4
:104170000D0A0A5374617274656420210D0A0A00E5
:104180007374617475733A256C75206D6F64653A4C
:10419000256C752072706D5F7467743A25326C758A
:1041A000206572726F723A25640D0A006D73673A6A
:1041B00025753A2563256325632563256325630AF1
:1041C0000D000000000000000102030400000000D8
:1041D00000000000010203040607080903040608A2
:1041E0000C10182030000000232D302B2000000080
:1041F000686C4C00656667454647000030313233D5
:1042000034353637383941424344454600000000D2
:10421000303132333435363738396162636465663C
:04422000000000009A
:08422400A0D9FF7F010000009A
:04422C00A5010008E0
:044230007D01000804
:104234000400002000000000000000000000000056
:10424400000000000000000000000000000000006A
:10425400000000000000000000000000000000005A
:10426400000000000000000000000000000000004A
:10427400000000000000000000000000000000003A
:10428400000000000000000000000000000000002A
:1042940000000000010000001000000068FF1F0083
:040000050800410DA1
:00000001FF
